{
  "_format": "hh-sol-artifact-1",
  "contractName": "Crowdfunding",
  "sourceName": "contracts/Crowdfunding.sol",
  "abi": [
    {
      "anonymous": false,
      "inputs": [
        {
          "indexed": false,
          "internalType": "address",
          "name": "projectAddress",
          "type": "address"
        },
        {
          "indexed": false,
          "internalType": "uint256",
          "name": "contributedAmount",
          "type": "uint256"
        },
        {
          "indexed": true,
          "internalType": "address",
          "name": "contributor",
          "type": "address"
        }
      ],
      "name": "ContributionReceived",
      "type": "event"
    },
    {
      "anonymous": false,
      "inputs": [
        {
          "indexed": false,
          "internalType": "address",
          "name": "projectContractAddress",
          "type": "address"
        },
        {
          "indexed": false,
          "internalType": "address",
          "name": "creator",
          "type": "address"
        },
        {
          "indexed": false,
          "internalType": "uint256",
          "name": "minContribution",
          "type": "uint256"
        },
        {
          "indexed": false,
          "internalType": "uint256",
          "name": "projectDeadline",
          "type": "uint256"
        },
        {
          "indexed": false,
          "internalType": "uint256",
          "name": "goalAmount",
          "type": "uint256"
        },
        {
          "indexed": false,
          "internalType": "uint256",
          "name": "currentAmount",
          "type": "uint256"
        },
        {
          "indexed": false,
          "internalType": "uint256",
          "name": "noOfContributors",
          "type": "uint256"
        },
        {
          "indexed": false,
          "internalType": "string",
          "name": "title",
          "type": "string"
        },
        {
          "indexed": false,
          "internalType": "string",
          "name": "desc",
          "type": "string"
        },
        {
          "indexed": false,
          "internalType": "uint256",
          "name": "currentState",
          "type": "uint256"
        }
      ],
      "name": "ProjectStarted",
      "type": "event"
    },
    {
      "inputs": [
        {
          "internalType": "address",
          "name": "_projectAddress",
          "type": "address"
        }
      ],
      "name": "contribute",
      "outputs": [],
      "stateMutability": "payable",
      "type": "function"
    },
    {
      "inputs": [
        {
          "internalType": "uint256",
          "name": "minimumContribution",
          "type": "uint256"
        },
        {
          "internalType": "uint256",
          "name": "deadline",
          "type": "uint256"
        },
        {
          "internalType": "uint256",
          "name": "targetContribution",
          "type": "uint256"
        },
        {
          "internalType": "string",
          "name": "projectTitle",
          "type": "string"
        },
        {
          "internalType": "string",
          "name": "projectDesc",
          "type": "string"
        }
      ],
      "name": "createProject",
      "outputs": [],
      "stateMutability": "nonpayable",
      "type": "function"
    }
  ],
  "bytecode": "0x608060405234801561001057600080fd5b506133e3806100206000396000f3fe6080604052600436106200002c5760003560e01c806373e888fd1462000031578063a429078b1462000051575b600080fd5b6200004f60048036038101906200004991906200052b565b6200007f565b005b3480156200005e57600080fd5b506200007d6004803603810190620000779190620005af565b62000350565b005b60008173ffffffffffffffffffffffffffffffffffffffff1663937e09b16040518163ffffffff1660e01b815260040160206040518083038186803b158015620000c857600080fd5b505afa158015620000dd573d6000803e3d6000fd5b505050506040513d601f19601f8201168201806040525081019062000103919062000583565b905060008273ffffffffffffffffffffffffffffffffffffffff1663c19d93fb6040518163ffffffff1660e01b815260040160206040518083038186803b1580156200014e57600080fd5b505afa15801562000163573d6000803e3d6000fd5b505050506040513d601f19601f8201168201806040525081019062000189919062000557565b905060006002811115620001c6577f4e487b7100000000000000000000000000000000000000000000000000000000600052602160045260246000fd5b81600281111562000200577f4e487b7100000000000000000000000000000000000000000000000000000000600052602160045260246000fd5b1462000243576040517f08c379a00000000000000000000000000000000000000000000000000000000081526004016200023a90620008de565b60405180910390fd5b8134101562000289576040517f08c379a0000000000000000000000000000000000000000000000000000000008152600401620002809062000900565b60405180910390fd5b8273ffffffffffffffffffffffffffffffffffffffff166373e888fd34336040518363ffffffff1660e01b8152600401620002c591906200075b565b6000604051808303818588803b158015620002df57600080fd5b505af1158015620002f4573d6000803e3d6000fd5b50505050503373ffffffffffffffffffffffffffffffffffffffff167f0829c5c9dc5d14e41b11cfca0f01f76eba69b648ddcf9f84afba16ba8a76bf1c84346040516200034392919062000836565b60405180910390a2505050565b600033868686868660405162000366906200044f565b620003779695949392919062000863565b604051809103906000f08015801562000394573d6000803e3d6000fd5b5090506000819080600181540180825580915050600190039060005260206000200160009091909190916101000a81548173ffffffffffffffffffffffffffffffffffffffff021916908373ffffffffffffffffffffffffffffffffffffffff1602179055507f73cc6512e7ecc537961f06c435b8c36be561c23851b3c990165a8cd7968dc6c681338888886000808a8a60006040516200043f9a9998979695949392919062000778565b60405180910390a1505050505050565b6128ec8062000ac283390190565b6000620004746200046e8462000956565b62000922565b9050828152602081018484840111156200048d57600080fd5b6200049a848285620009f7565b509392505050565b600081359050620004b38162000a7c565b92915050565b600081519050620004ca8162000a96565b92915050565b600082601f830112620004e257600080fd5b8135620004f48482602086016200045d565b91505092915050565b6000813590506200050e8162000aa7565b92915050565b600081519050620005258162000aa7565b92915050565b6000602082840312156200053e57600080fd5b60006200054e84828501620004a2565b91505092915050565b6000602082840312156200056a57600080fd5b60006200057a84828501620004b9565b91505092915050565b6000602082840312156200059657600080fd5b6000620005a68482850162000514565b91505092915050565b600080600080600060a08688031215620005c857600080fd5b6000620005d888828901620004fd565b9550506020620005eb88828901620004fd565b9450506040620005fe88828901620004fd565b935050606086013567ffffffffffffffff8111156200061c57600080fd5b6200062a88828901620004d0565b925050608086013567ffffffffffffffff8111156200064857600080fd5b6200065688828901620004d0565b9150509295509295909350565b6200066e81620009a5565b82525050565b6200067f81620009e3565b82525050565b6000620006928262000989565b6200069e818562000994565b9350620006b081856020860162000a06565b620006bb8162000a6b565b840191505092915050565b6000620006d5600d8362000994565b91507f496e76616c6964207374617465000000000000000000000000000000000000006000830152602082019050919050565b600062000717601f8362000994565b91507f436f6e747269627574696f6e20616d6f756e7420697320746f6f206c6f7721006000830152602082019050919050565b6200075581620009d9565b82525050565b600060208201905062000772600083018462000663565b92915050565b60006101408201905062000790600083018d62000663565b6200079f602083018c62000663565b620007ae604083018b6200074a565b620007bd606083018a6200074a565b620007cc60808301896200074a565b620007db60a083018862000674565b620007ea60c083018762000674565b81810360e0830152620007fe818662000685565b905081810361010083015262000815818562000685565b90506200082761012083018462000674565b9b9a5050505050505050505050565b60006040820190506200084d600083018562000663565b6200085c60208301846200074a565b9392505050565b600060c0820190506200087a600083018962000663565b6200088960208301886200074a565b6200089860408301876200074a565b620008a760608301866200074a565b8181036080830152620008bb818562000685565b905081810360a0830152620008d1818462000685565b9050979650505050505050565b60006020820190508181036000830152620008f981620006c6565b9050919050565b600060208201905081810360008301526200091b8162000708565b9050919050565b6000604051905081810181811067ffffffffffffffff821117156200094c576200094b62000a3c565b5b8060405250919050565b600067ffffffffffffffff82111562000974576200097362000a3c565b5b601f19601f8301169050602081019050919050565b600081519050919050565b600082825260208201905092915050565b6000620009b282620009b9565b9050919050565b600073ffffffffffffffffffffffffffffffffffffffff82169050919050565b6000819050919050565b6000620009f082620009d9565b9050919050565b82818337600083830152505050565b60005b8381101562000a2657808201518184015260208101905062000a09565b8381111562000a36576000848401525b50505050565b7f4e487b7100000000000000000000000000000000000000000000000000000000600052604160045260246000fd5b6000601f19601f8301169050919050565b62000a8781620009a5565b811462000a9357600080fd5b50565b6003811062000aa457600080fd5b50565b62000ab281620009d9565b811462000abe57600080fd5b5056fe60806040526000600960006101000a81548160ff0219169083600281111562000051577f4e487b7100000000000000000000000000000000000000000000000000000000600052602160045260246000fd5b02179055506000600c553480156200006857600080fd5b50604051620028ec380380620028ec83398181016040528101906200008e919062000279565b856000806101000a81548173ffffffffffffffffffffffffffffffffffffffff021916908373ffffffffffffffffffffffffffffffffffffffff1602179055508460018190555083600281905550826003819055508160079080519060200190620000fb92919062000129565b5080600890805190602001906200011492919062000129565b506000600581905550505050505050620004e4565b82805462000137906200041c565b90600052602060002090601f0160209004810192826200015b5760008555620001a7565b82601f106200017657805160ff1916838001178555620001a7565b82800160010185558215620001a7579182015b82811115620001a657825182559160200191906001019062000189565b5b509050620001b69190620001ba565b5090565b5b80821115620001d5576000816000905550600101620001bb565b5090565b6000620001f0620001ea8462000375565b62000341565b9050828152602081018484840111156200020957600080fd5b62000216848285620003e6565b509392505050565b6000815190506200022f81620004b0565b92915050565b600082601f8301126200024757600080fd5b815162000259848260208601620001d9565b91505092915050565b6000815190506200027381620004ca565b92915050565b60008060008060008060c087890312156200029357600080fd5b6000620002a389828a016200021e565b9650506020620002b689828a0162000262565b9550506040620002c989828a0162000262565b9450506060620002dc89828a0162000262565b935050608087015167ffffffffffffffff811115620002fa57600080fd5b6200030889828a0162000235565b92505060a087015167ffffffffffffffff8111156200032657600080fd5b6200033489828a0162000235565b9150509295509295509295565b6000604051905081810181811067ffffffffffffffff821117156200036b576200036a62000481565b5b8060405250919050565b600067ffffffffffffffff82111562000393576200039262000481565b5b601f19601f8301169050602081019050919050565b6000620003b582620003bc565b9050919050565b600073ffffffffffffffffffffffffffffffffffffffff82169050919050565b6000819050919050565b60005b8381101562000406578082015181840152602081019050620003e9565b8381111562000416576000848401525b50505050565b600060028204905060018216806200043557607f821691505b602082108114156200044c576200044b62000452565b5b50919050565b7f4e487b7100000000000000000000000000000000000000000000000000000000600052602260045260246000fd5b7f4e487b7100000000000000000000000000000000000000000000000000000000600052604160045260246000fd5b620004bb81620003a8565b8114620004c757600080fd5b50565b620004d581620003dc565b8114620004e157600080fd5b50565b6123f880620004f46000396000f3fe60806040526004361061011f5760003560e01c8063937e09b1116100a0578063c19d93fb11610064578063c19d93fb146103bc578063c3e20c9f146103e7578063c59ee1dc14610412578063d5cef1331461043d578063ff3a9c7e146104685761011f565b8063937e09b1146102d1578063992a7dfb146102fc578063a46752ae1461033d578063b40141bf14610366578063b82c86d6146103915761011f565b80634c4cea5a116100e75780634c4cea5a1461020d5780634e695a37146102385780636f9fb98a1461026157806373e888fd1461028c578063752e19f9146102a85761011f565b806302d05d3f1461012457806303c29d581461014f5780630a7713701461017a57806324274ee9146101b757806329dcb0cf146101e2575b600080fd5b34801561013057600080fd5b5061013961049c565b6040516101469190611bee565b60405180910390f35b34801561015b57600080fd5b506101646104c0565b6040516101719190611d49565b60405180910390f35b34801561018657600080fd5b506101a1600480360381019061019c9190611761565b61054e565b6040516101ae9190611ee5565b60405180910390f35b3480156101c357600080fd5b506101cc610566565b6040516101d99190611ee5565b60405180910390f35b3480156101ee57600080fd5b506101f761056c565b6040516102049190611ee5565b60405180910390f35b34801561021957600080fd5b50610222610572565b60405161022f9190611ee5565b60405180910390f35b34801561024457600080fd5b5061025f600480360381019061025a91906117f1565b610578565b005b34801561026d57600080fd5b5061027661075d565b6040516102839190611ee5565b60405180910390f35b6102a660048036038101906102a19190611761565b610765565b005b3480156102b457600080fd5b506102cf60048036038101906102ca91906117f1565b6109ca565b005b3480156102dd57600080fd5b506102e6610d25565b6040516102f39190611ee5565b60405180910390f35b34801561030857600080fd5b50610323600480360381019061031e91906117f1565b610d2b565b604051610334959493929190611d6b565b60405180910390f35b34801561034957600080fd5b50610364600480360381019061035f919061178a565b610e16565b005b34801561037257600080fd5b5061037b6110b3565b6040516103889190611ee5565b60405180910390f35b34801561039d57600080fd5b506103a66110b9565b6040516103b39190611ee5565b60405180910390f35b3480156103c857600080fd5b506103d16110bf565b6040516103de9190611d2e565b60405180910390f35b3480156103f357600080fd5b506103fc6110d2565b6040516104099190611d49565b60405180910390f35b34801561041e57600080fd5b50610427611160565b6040516104349190611ee5565b60405180910390f35b34801561044957600080fd5b50610452611166565b60405161045f9190611d13565b60405180910390f35b34801561047457600080fd5b5061047d6113ca565b6040516104939a99989796959493929190611c09565b60405180910390f35b60008054906101000a900473ffffffffffffffffffffffffffffffffffffffff1681565b600880546104cd906121f2565b80601f01602080910402602001604051908101604052809291908181526020018280546104f9906121f2565b80156105465780601f1061051b57610100808354040283529160200191610546565b820191906000526020600020905b81548152906001019060200180831161052957829003601f168201915b505050505081565b600a6020528060005260406000206000915090505481565b60065481565b60025481565b60045481565b6000600a60003373ffffffffffffffffffffffffffffffffffffffff1673ffffffffffffffffffffffffffffffffffffffff16815260200190815260200160002054116105fa576040517f08c379a00000000000000000000000000000000000000000000000000000000081526004016105f190611dc5565b60405180910390fd5b6000600b60008381526020019081526020016000209050600015158160030160003373ffffffffffffffffffffffffffffffffffffffff1673ffffffffffffffffffffffffffffffffffffffff16815260200190815260200160002060009054906101000a900460ff161515146106a6576040517f08c379a000000000000000000000000000000000000000000000000000000000815260040161069d90611e25565b60405180910390fd5b60018160030160003373ffffffffffffffffffffffffffffffffffffffff1673ffffffffffffffffffffffffffffffffffffffff16815260200190815260200160002060006101000a81548160ff02191690831515021790555060018160020160008282546107159190612062565b925050819055507fa2925e4595bf873fa82c22a1a89809777347023bf2b502d32710157a5eb8199c338260020154604051610751929190611cb3565b60405180910390a15050565b600047905090565b60008060028111156107a0577f4e487b7100000000000000000000000000000000000000000000000000000000600052602160045260246000fd5b600960009054906101000a900460ff1660028111156107e8577f4e487b7100000000000000000000000000000000000000000000000000000000600052602160045260246000fd5b14610828576040517f08c379a000000000000000000000000000000000000000000000000000000000815260040161081f90611e65565b60405180910390fd5b600254421061086c576040517f08c379a000000000000000000000000000000000000000000000000000000000815260040161086390611e45565b60405180910390fd5b6001543410156108b1576040517f08c379a00000000000000000000000000000000000000000000000000000000081526004016108a890611e85565b60405180910390fd5b6000600a60008473ffffffffffffffffffffffffffffffffffffffff1673ffffffffffffffffffffffffffffffffffffffff168152602001908152602001600020541415610912576006600081548092919061090c90612224565b91905055505b34600a60008473ffffffffffffffffffffffffffffffffffffffff1673ffffffffffffffffffffffffffffffffffffffff16815260200190815260200160002060008282546109619190612062565b92505081905550346005600082825461097a9190612062565b925050819055507f5cdc4ab8d637538ead6cc1904d4160343656c8c82bd266635cfd31ac008fffe082346005546040516109b693929190611cdc565b60405180910390a16109c6611550565b5050565b60008054906101000a900473ffffffffffffffffffffffffffffffffffffffff1673ffffffffffffffffffffffffffffffffffffffff163373ffffffffffffffffffffffffffffffffffffffff1614610a58576040517f08c379a0000000000000000000000000000000000000000000000000000000008152600401610a4f90611e05565b60405180910390fd5b6002806002811115610a93577f4e487b7100000000000000000000000000000000000000000000000000000000600052602160045260246000fd5b600960009054906101000a900460ff166002811115610adb577f4e487b7100000000000000000000000000000000000000000000000000000000600052602160045260246000fd5b14610b1b576040517f08c379a0000000000000000000000000000000000000000000000000000000008152600401610b1290611e65565b60405180910390fd5b6002544210610b5f576040517f08c379a0000000000000000000000000000000000000000000000000000000008152600401610b5690611e45565b60405180910390fd5b6000600b60008481526020019081526020016000209050600015158160040160009054906101000a900460ff16151514610bce576040517f08c379a0000000000000000000000000000000000000000000000000000000008152600401610bc590611ea5565b60405180910390fd5b6002600654610bdd91906120b8565b81600201541015610c23576040517f08c379a0000000000000000000000000000000000000000000000000000000008152600401610c1a90611ec5565b60405180910390fd5b8060040160019054906101000a900473ffffffffffffffffffffffffffffffffffffffff1673ffffffffffffffffffffffffffffffffffffffff166108fc82600101549081150290604051600060405180830381858888f19350505050158015610c91573d6000803e3d6000fd5b5060018160040160006101000a81548160ff0219169083151502179055507f2af8d60b878c5e8de57c8ff96e03c6cfab6de26b47e989757345cc1dceaac99883826000018360010154846002015460018660040160019054906101000a900473ffffffffffffffffffffffffffffffffffffffff16604051610d1896959493929190611f68565b60405180910390a1505050565b60015481565b600b602052806000526040600020600091509050806000018054610d4e906121f2565b80601f0160208091040260200160405190810160405280929190818152602001828054610d7a906121f2565b8015610dc75780601f10610d9c57610100808354040283529160200191610dc7565b820191906000526020600020905b815481529060010190602001808311610daa57829003601f168201915b5050505050908060010154908060020154908060040160009054906101000a900460ff16908060040160019054906101000a900473ffffffffffffffffffffffffffffffffffffffff16905085565b60008054906101000a900473ffffffffffffffffffffffffffffffffffffffff1673ffffffffffffffffffffffffffffffffffffffff163373ffffffffffffffffffffffffffffffffffffffff1614610ea4576040517f08c379a0000000000000000000000000000000000000000000000000000000008152600401610e9b90611e05565b60405180910390fd5b6002806002811115610edf577f4e487b7100000000000000000000000000000000000000000000000000000000600052602160045260246000fd5b600960009054906101000a900460ff166002811115610f27577f4e487b7100000000000000000000000000000000000000000000000000000000600052602160045260246000fd5b14610f67576040517f08c379a0000000000000000000000000000000000000000000000000000000008152600401610f5e90611e65565b60405180910390fd5b6002544210610fab576040517f08c379a0000000000000000000000000000000000000000000000000000000008152600401610fa290611e45565b60405180910390fd5b6000600b6000600c5481526020019081526020016000209050600c6000815480929190610fd790612224565b919050555084816000019080519060200190610ff4929190611617565b508381600101819055506000816002018190555060008160040160006101000a81548160ff021916908315150217905550828160040160016101000a81548173ffffffffffffffffffffffffffffffffffffffff021916908373ffffffffffffffffffffffffffffffffffffffff1602179055507f9883a4e4f8698e4cc93bafb8d0d2376cb8c51dd322cb9fd80d02c691fcdea503600c548686600080886040516110a496959493929190611f00565b60405180910390a15050505050565b600c5481565b60035481565b600960009054906101000a900460ff1681565b600780546110df906121f2565b80601f016020809104026020016040519081016040528092919081815260200182805461110b906121f2565b80156111585780601f1061112d57610100808354040283529160200191611158565b820191906000526020600020905b81548152906001019060200180831161113b57829003601f168201915b505050505081565b60055481565b600060018060028111156111a3577f4e487b7100000000000000000000000000000000000000000000000000000000600052602160045260246000fd5b600960009054906101000a900460ff1660028111156111eb577f4e487b7100000000000000000000000000000000000000000000000000000000600052602160045260246000fd5b1461122b576040517f08c379a000000000000000000000000000000000000000000000000000000000815260040161122290611e65565b60405180910390fd5b600254421061126f576040517f08c379a000000000000000000000000000000000000000000000000000000000815260040161126690611e45565b60405180910390fd5b6000600a60003373ffffffffffffffffffffffffffffffffffffffff1673ffffffffffffffffffffffffffffffffffffffff16815260200190815260200160002054116112f1576040517f08c379a00000000000000000000000000000000000000000000000000000000081526004016112e890611de5565b60405180910390fd5b60003390508073ffffffffffffffffffffffffffffffffffffffff166108fc600a60003373ffffffffffffffffffffffffffffffffffffffff1673ffffffffffffffffffffffffffffffffffffffff168152602001908152602001600020549081150290604051600060405180830381858888f1935050505015801561137b573d6000803e3d6000fd5b506000600a60003373ffffffffffffffffffffffffffffffffffffffff1673ffffffffffffffffffffffffffffffffffffffff1681526020019081526020016000208190555060019250505090565b60008060008060008060608060008060008054906101000a900473ffffffffffffffffffffffffffffffffffffffff1699506001549850600254975060035496506004549550600554945060078054611422906121f2565b80601f016020809104026020016040519081016040528092919081815260200182805461144e906121f2565b801561149b5780601f106114705761010080835404028352916020019161149b565b820191906000526020600020905b81548152906001019060200180831161147e57829003601f168201915b50505050509350600880546114af906121f2565b80601f01602080910402602001604051908101604052809291908181526020018280546114db906121f2565b80156115285780601f106114fd57610100808354040283529160200191611528565b820191906000526020600020905b81548152906001019060200180831161150b57829003601f168201915b50505050509250600960009054906101000a900460ff16915047905090919293949596979899565b600354600554106115b1576002600960006101000a81548160ff021916908360028111156115a7577f4e487b7100000000000000000000000000000000000000000000000000000000600052602160045260246000fd5b021790555061160e565b60025442111561160d576001600960006101000a81548160ff02191690836002811115611607577f4e487b7100000000000000000000000000000000000000000000000000000000600052602160045260246000fd5b02179055505b5b42600481905550565b828054611623906121f2565b90600052602060002090601f016020900481019282611645576000855561168c565b82601f1061165e57805160ff191683800117855561168c565b8280016001018555821561168c579182015b8281111561168b578251825591602001919060010190611670565b5b509050611699919061169d565b5090565b5b808211156116b657600081600090555060010161169e565b5090565b60006116cd6116c884612001565b611fd0565b9050828152602081018484840111156116e557600080fd5b6116f08482856121b0565b509392505050565b6000813590506117078161237d565b92915050565b60008135905061171c81612394565b92915050565b600082601f83011261173357600080fd5b81356117438482602086016116ba565b91505092915050565b60008135905061175b816123ab565b92915050565b60006020828403121561177357600080fd5b6000611781848285016116f8565b91505092915050565b60008060006060848603121561179f57600080fd5b600084013567ffffffffffffffff8111156117b957600080fd5b6117c586828701611722565b93505060206117d68682870161174c565b92505060406117e78682870161170d565b9150509250925092565b60006020828403121561180357600080fd5b60006118118482850161174c565b91505092915050565b61182381612156565b82525050565b611832816120fb565b82525050565b611841816120e9565b82525050565b6118508161210d565b82525050565b61185f81612168565b82525050565b61186e8161217a565b82525050565b600061187f82612046565b6118898185612051565b93506118998185602086016121bf565b6118a281612358565b840191505092915050565b600081546118ba816121f2565b6118c48186612051565b945060018216600081146118df57600181146118f157611924565b60ff1983168652602086019350611924565b6118fa85612031565b60005b8381101561191c578154818901526001820191506020810190506118fd565b808801955050505b50505092915050565b600061193a601b83612051565b91507f4f6e6c7920636f6e7472696275746f722063616e20766f7465202100000000006000830152602082019050919050565b600061197a602683612051565b91507f596f7520646f6e74206861766520616e7920636f6e747269627574656420616d60008301527f6f756e74202100000000000000000000000000000000000000000000000000006020830152604082019050919050565b60006119e0603083612051565b91507f596f7520646f6e7420686176652061636365737320746f20706572666f726d2060008301527f74686973206f7065726174696f6e2021000000000000000000000000000000006020830152604082019050919050565b6000611a46601383612051565b91507f596f7520616c726561647920766f7465642021000000000000000000000000006000830152602082019050919050565b6000611a86601583612051565b91507f446561646c696e652068617320706173736564202100000000000000000000006000830152602082019050919050565b6000611ac6600d83612051565b91507f496e76616c6964207374617465000000000000000000000000000000000000006000830152602082019050919050565b6000611b06602083612051565b91507f436f6e747269627574696f6e20616d6f756e7420697320746f6f206c6f7720216000830152602082019050919050565b6000611b46601983612051565b91507f5265717565737420616c726561647920636f6d706c65746564000000000000006000830152602082019050919050565b6000611b86603683612051565b91507f4174206c656173742035302520636f6e7472696275746f72206e65656420746f60008301527f20766f746520666f7220746869732072657175657374000000000000000000006020830152604082019050919050565b611be88161214c565b82525050565b6000602082019050611c036000830184611829565b92915050565b600061014082019050611c1f600083018d611829565b611c2c602083018c611bdf565b611c39604083018b611bdf565b611c46606083018a611bdf565b611c536080830189611bdf565b611c6060a0830188611bdf565b81810360c0830152611c728187611874565b905081810360e0830152611c868186611874565b9050611c96610100830185611856565b611ca4610120830184611bdf565b9b9a5050505050505050505050565b6000604082019050611cc86000830185611838565b611cd56020830184611bdf565b9392505050565b6000606082019050611cf16000830186611838565b611cfe6020830185611bdf565b611d0b6040830184611bdf565b949350505050565b6000602082019050611d286000830184611847565b92915050565b6000602082019050611d436000830184611856565b92915050565b60006020820190508181036000830152611d638184611874565b905092915050565b600060a0820190508181036000830152611d858188611874565b9050611d946020830187611bdf565b611da16040830186611bdf565b611dae6060830185611847565b611dbb6080830184611829565b9695505050505050565b60006020820190508181036000830152611dde8161192d565b9050919050565b60006020820190508181036000830152611dfe8161196d565b9050919050565b60006020820190508181036000830152611e1e816119d3565b9050919050565b60006020820190508181036000830152611e3e81611a39565b9050919050565b60006020820190508181036000830152611e5e81611a79565b9050919050565b60006020820190508181036000830152611e7e81611ab9565b9050919050565b60006020820190508181036000830152611e9e81611af9565b9050919050565b60006020820190508181036000830152611ebe81611b39565b9050919050565b60006020820190508181036000830152611ede81611b79565b9050919050565b6000602082019050611efa6000830184611bdf565b92915050565b600060c082019050611f156000830189611bdf565b8181036020830152611f278188611874565b9050611f366040830187611bdf565b611f436060830186611865565b611f506080830185611847565b611f5d60a083018461181a565b979650505050505050565b600060c082019050611f7d6000830189611bdf565b8181036020830152611f8f81886118ad565b9050611f9e6040830187611bdf565b611fab6060830186611bdf565b611fb86080830185611847565b611fc560a083018461181a565b979650505050505050565b6000604051905081810181811067ffffffffffffffff82111715611ff757611ff6612329565b5b8060405250919050565b600067ffffffffffffffff82111561201c5761201b612329565b5b601f19601f8301169050602081019050919050565b60008190508160005260206000209050919050565b600081519050919050565b600082825260208201905092915050565b600061206d8261214c565b91506120788361214c565b9250827fffffffffffffffffffffffffffffffffffffffffffffffffffffffffffffffff038211156120ad576120ac61226d565b5b828201905092915050565b60006120c38261214c565b91506120ce8361214c565b9250826120de576120dd61229c565b5b828204905092915050565b60006120f48261212c565b9050919050565b60006121068261212c565b9050919050565b60008115159050919050565b600081905061212782612369565b919050565b600073ffffffffffffffffffffffffffffffffffffffff82169050919050565b6000819050919050565b60006121618261218c565b9050919050565b600061217382612119565b9050919050565b60006121858261214c565b9050919050565b60006121978261219e565b9050919050565b60006121a98261212c565b9050919050565b82818337600083830152505050565b60005b838110156121dd5780820151818401526020810190506121c2565b838111156121ec576000848401525b50505050565b6000600282049050600182168061220a57607f821691505b6020821081141561221e5761221d6122fa565b5b50919050565b600061222f8261214c565b91507fffffffffffffffffffffffffffffffffffffffffffffffffffffffffffffffff8214156122625761226161226d565b5b600182019050919050565b7f4e487b7100000000000000000000000000000000000000000000000000000000600052601160045260246000fd5b7f4e487b7100000000000000000000000000000000000000000000000000000000600052601260045260246000fd5b7f4e487b7100000000000000000000000000000000000000000000000000000000600052602160045260246000fd5b7f4e487b7100000000000000000000000000000000000000000000000000000000600052602260045260246000fd5b7f4e487b7100000000000000000000000000000000000000000000000000000000600052604160045260246000fd5b6000601f19601f8301169050919050565b6003811061237a576123796122cb565b5b50565b612386816120e9565b811461239157600080fd5b50565b61239d816120fb565b81146123a857600080fd5b50565b6123b48161214c565b81146123bf57600080fd5b5056fea264697066735822122026b3e9759443a5dff704613a6bd8287cf769e2ceafca14d846be7dbcc06c4eb264736f6c63430008000033a2646970667358221220c7f35ed1d740db226aba1bbc37ee58d4beb2e51595bd1f73bfda8f66236fa2d364736f6c63430008000033",
  "linkReferences": {},
  "deployedLinkReferences": {}
}